{
  "_format": "hh-sol-artifact-1",
  "contractName": "IdentityRegistry",
  "sourceName": "contracts/IdentityRegistry.sol",
  "abi": [
    {
      "inputs": [],
      "stateMutability": "nonpayable",
      "type": "constructor"
    },
    {
      "anonymous": false,
      "inputs": [
        {
          "indexed": true,
          "internalType": "address",
          "name": "user",
          "type": "address"
        },
        {
          "indexed": true,
          "internalType": "string",
          "name": "verificationType",
          "type": "string"
        },
        {
          "indexed": false,
          "internalType": "string",
          "name": "cid",
          "type": "string"
        }
      ],
      "name": "AttestationMinted",
      "type": "event"
    },
    {
      "anonymous": false,
      "inputs": [
        {
          "indexed": true,
          "internalType": "string",
          "name": "cid",
          "type": "string"
        }
      ],
      "name": "AttestationRevoked",
      "type": "event"
    },
    {
      "anonymous": false,
      "inputs": [
        {
          "indexed": true,
          "internalType": "address",
          "name": "user",
          "type": "address"
        },
        {
          "indexed": true,
          "internalType": "string",
          "name": "verificationType",
          "type": "string"
        },
        {
          "indexed": false,
          "internalType": "uint256",
          "name": "timestamp",
          "type": "uint256"
        }
      ],
      "name": "ConsentGiven",
      "type": "event"
    },
    {
      "anonymous": false,
      "inputs": [
        {
          "indexed": true,
          "internalType": "address",
          "name": "user",
          "type": "address"
        },
        {
          "indexed": true,
          "internalType": "string",
          "name": "verificationType",
          "type": "string"
        },
        {
          "indexed": false,
          "internalType": "uint256",
          "name": "timestamp",
          "type": "uint256"
        }
      ],
      "name": "ConsentRevoked",
      "type": "event"
    },
    {
      "inputs": [
        {
          "internalType": "address",
          "name": "",
          "type": "address"
        },
        {
          "internalType": "string",
          "name": "",
          "type": "string"
        }
      ],
      "name": "consentTimestamp",
      "outputs": [
        {
          "internalType": "uint256",
          "name": "",
          "type": "uint256"
        }
      ],
      "stateMutability": "view",
      "type": "function"
    },
    {
      "inputs": [
        {
          "internalType": "address",
          "name": "user",
          "type": "address"
        }
      ],
      "name": "getLatestAttestation",
      "outputs": [
        {
          "internalType": "string",
          "name": "",
          "type": "string"
        }
      ],
      "stateMutability": "view",
      "type": "function"
    },
    {
      "inputs": [
        {
          "internalType": "address",
          "name": "user",
          "type": "address"
        },
        {
          "internalType": "string",
          "name": "verificationType",
          "type": "string"
        }
      ],
      "name": "getUserAttestation",
      "outputs": [
        {
          "internalType": "string",
          "name": "",
          "type": "string"
        }
      ],
      "stateMutability": "view",
      "type": "function"
    },
    {
      "inputs": [
        {
          "internalType": "address",
          "name": "user",
          "type": "address"
        }
      ],
      "name": "getUserVerificationTypes",
      "outputs": [
        {
          "internalType": "string[]",
          "name": "",
          "type": "string[]"
        }
      ],
      "stateMutability": "view",
      "type": "function"
    },
    {
      "inputs": [
        {
          "internalType": "string",
          "name": "verificationType",
          "type": "string"
        }
      ],
      "name": "giveConsent",
      "outputs": [],
      "stateMutability": "nonpayable",
      "type": "function"
    },
    {
      "inputs": [
        {
          "internalType": "address",
          "name": "user",
          "type": "address"
        }
      ],
      "name": "hasAnyVerification",
      "outputs": [
        {
          "internalType": "bool",
          "name": "",
          "type": "bool"
        }
      ],
      "stateMutability": "view",
      "type": "function"
    },
    {
      "inputs": [
        {
          "internalType": "address",
          "name": "user",
          "type": "address"
        },
        {
          "internalType": "string",
          "name": "verificationType",
          "type": "string"
        }
      ],
      "name": "hasConsented",
      "outputs": [
        {
          "internalType": "bool",
          "name": "",
          "type": "bool"
        }
      ],
      "stateMutability": "view",
      "type": "function"
    },
    {
      "inputs": [
        {
          "internalType": "string",
          "name": "",
          "type": "string"
        }
      ],
      "name": "isRevoked",
      "outputs": [
        {
          "internalType": "bool",
          "name": "",
          "type": "bool"
        }
      ],
      "stateMutability": "view",
      "type": "function"
    },
    {
      "inputs": [
        {
          "internalType": "address",
          "name": "user",
          "type": "address"
        },
        {
          "internalType": "string",
          "name": "verificationType",
          "type": "string"
        },
        {
          "internalType": "string",
          "name": "cid",
          "type": "string"
        }
      ],
      "name": "mintAttestation",
      "outputs": [],
      "stateMutability": "nonpayable",
      "type": "function"
    },
    {
      "inputs": [],
      "name": "owner",
      "outputs": [
        {
          "internalType": "address",
          "name": "",
          "type": "address"
        }
      ],
      "stateMutability": "view",
      "type": "function"
    },
    {
      "inputs": [
        {
          "internalType": "string",
          "name": "cid",
          "type": "string"
        }
      ],
      "name": "revokeAttestation",
      "outputs": [],
      "stateMutability": "nonpayable",
      "type": "function"
    },
    {
      "inputs": [
        {
          "internalType": "string",
          "name": "verificationType",
          "type": "string"
        }
      ],
      "name": "revokeConsent",
      "outputs": [],
      "stateMutability": "nonpayable",
      "type": "function"
    },
    {
      "inputs": [
        {
          "internalType": "address",
          "name": "",
          "type": "address"
        },
        {
          "internalType": "string",
          "name": "",
          "type": "string"
        }
      ],
      "name": "userAttestations",
      "outputs": [
        {
          "internalType": "string",
          "name": "",
          "type": "string"
        }
      ],
      "stateMutability": "view",
      "type": "function"
    },
    {
      "inputs": [
        {
          "internalType": "address",
          "name": "",
          "type": "address"
        },
        {
          "internalType": "string",
          "name": "",
          "type": "string"
        }
      ],
      "name": "userConsent",
      "outputs": [
        {
          "internalType": "bool",
          "name": "",
          "type": "bool"
        }
      ],
      "stateMutability": "view",
      "type": "function"
    },
    {
      "inputs": [
        {
          "internalType": "address",
          "name": "",
          "type": "address"
        },
        {
          "internalType": "uint256",
          "name": "",
          "type": "uint256"
        }
      ],
      "name": "userVerificationTypes",
      "outputs": [
        {
          "internalType": "string",
          "name": "",
          "type": "string"
        }
      ],
      "stateMutability": "view",
      "type": "function"
    }
  ],
  "bytecode": "0x6080604052348015600f57600080fd5b50336000806101000a81548173ffffffffffffffffffffffffffffffffffffffff021916908373ffffffffffffffffffffffffffffffffffffffff160217905550611fdc8061005f6000396000f3fe608060405234801561001057600080fd5b50600436106100f55760003560e01c8063921d93e911610097578063a1e0da3011610066578063a1e0da30146102d0578063a24d965814610300578063d537e3db1461031c578063ed5ea0d21461034c576100f5565b8063921d93e91461023857806395f2deb31461026857806398e7ac1d146102845780639e83e30e146102a0576100f5565b806335168a00116100d357806335168a001461018a578063418430e2146101ba57806358c01292146101ea5780638da5cb5b1461021a576100f5565b8063080f522c146100fa57806309e916541461012a57806330f1c2d41461015a575b600080fd5b610114600480360381019061010f9190611522565b610368565b60405161012191906115df565b60405180910390f35b610144600480360381019061013f9190611736565b610613565b60405161015191906117ad565b60405180910390f35b610174600480360381019061016f9190611736565b610658565b60405161018191906115df565b60405180910390f35b6101a4600480360381019061019f91906117c8565b610746565b6040516101b191906117ad565b60405180910390f35b6101d460048036038101906101cf9190611847565b61077c565b6040516101e191906115df565b60405180910390f35b61020460048036038101906101ff9190611736565b610835565b60405161021191906117ad565b60405180910390f35b6102226108a8565b60405161022f9190611896565b60405180910390f35b610252600480360381019061024d9190611736565b6108cc565b60405161025f91906118c0565b60405180910390f35b610282600480360381019061027d91906117c8565b610907565b005b61029e600480360381019061029991906118db565b610a11565b005b6102ba60048036038101906102b59190611736565b610e38565b6040516102c791906115df565b60405180910390f35b6102ea60048036038101906102e59190611522565b610efb565b6040516102f791906117ad565b60405180910390f35b61031a600480360381019061031591906117c8565b611182565b005b61033660048036038101906103319190611522565b61125d565b6040516103439190611a72565b60405180910390f35b610366600480360381019061036191906117c8565b611375565b005b60606000600260008473ffffffffffffffffffffffffffffffffffffffff1673ffffffffffffffffffffffffffffffffffffffff168152602001908152602001600020805480602002602001604051908101604052809291908181526020016000905b828210156104775783829060005260206000200180546103ea90611ac3565b80601f016020809104026020016040519081016040528092919081815260200182805461041690611ac3565b80156104635780601f1061043857610100808354040283529160200191610463565b820191906000526020600020905b81548152906001019060200180831161044657829003601f168201915b5050505050815260200190600101906103cb565b5050505090506000815190505b60008111156105f9576000600160008673ffffffffffffffffffffffffffffffffffffffff1673ffffffffffffffffffffffffffffffffffffffff168152602001908152602001600020836001846104dc9190611b23565b815181106104ed576104ec611b57565b5b60200260200101516040516105029190611bc2565b9081526020016040518091039020805461051b90611ac3565b80601f016020809104026020016040519081016040528092919081815260200182805461054790611ac3565b80156105945780601f1061056957610100808354040283529160200191610594565b820191906000526020600020905b81548152906001019060200180831161057757829003601f168201915b50505050509050600081511180156105d557506005816040516105b79190611bc2565b908152602001604051809103902060009054906101000a900460ff16155b156105e55780935050505061060e565b5080806105f190611bd9565b915050610484565b50604051806020016040528060008152509150505b919050565b6003602052816000526040600020818051602081018201805184825260208301602085012081835280955050505050506000915091509054906101000a900460ff1681565b6060600160008473ffffffffffffffffffffffffffffffffffffffff1673ffffffffffffffffffffffffffffffffffffffff168152602001908152602001600020826040516106a79190611bc2565b908152602001604051809103902080546106c090611ac3565b80601f01602080910402602001604051908101604052809291908181526020018280546106ec90611ac3565b80156107395780601f1061070e57610100808354040283529160200191610739565b820191906000526020600020905b81548152906001019060200180831161071c57829003601f168201915b5050505050905092915050565b6005818051602081018201805184825260208301602085012081835280955050505050506000915054906101000a900460ff1681565b6002602052816000526040600020818154811061079857600080fd5b906000526020600020016000915091505080546107b490611ac3565b80601f01602080910402602001604051908101604052809291908181526020018280546107e090611ac3565b801561082d5780601f106108025761010080835404028352916020019161082d565b820191906000526020600020905b81548152906001019060200180831161081057829003601f168201915b505050505081565b6000600360008473ffffffffffffffffffffffffffffffffffffffff1673ffffffffffffffffffffffffffffffffffffffff168152602001908152602001600020826040516108849190611bc2565b908152602001604051809103902060009054906101000a900460ff16905092915050565b60008054906101000a900473ffffffffffffffffffffffffffffffffffffffff1681565b600460205281600052604060002081805160208101820180518482526020830160208501208183528095505050505050600091509150505481565b60008054906101000a900473ffffffffffffffffffffffffffffffffffffffff1673ffffffffffffffffffffffffffffffffffffffff163373ffffffffffffffffffffffffffffffffffffffff1614610995576040517f08c379a000000000000000000000000000000000000000000000000000000000815260040161098c90611c4e565b60405180910390fd5b60016005826040516109a79190611bc2565b908152602001604051809103902060006101000a81548160ff021916908315150217905550806040516109da9190611bc2565b60405180910390207ff8bd8d5a493ae87fd0e8f394606d75a71ad9e3a0690b0ad0eeadb36aa83e480060405160405180910390a250565b60008054906101000a900473ffffffffffffffffffffffffffffffffffffffff1673ffffffffffffffffffffffffffffffffffffffff163373ffffffffffffffffffffffffffffffffffffffff1614610a9f576040517f08c379a0000000000000000000000000000000000000000000000000000000008152600401610a9690611c4e565b60405180910390fd5b6000600160008573ffffffffffffffffffffffffffffffffffffffff1673ffffffffffffffffffffffffffffffffffffffff16815260200190815260200160002083604051610aee9190611bc2565b90815260200160405180910390208054610b0790611ac3565b80601f0160208091040260200160405190810160405280929190818152602001828054610b3390611ac3565b8015610b805780601f10610b5557610100808354040283529160200191610b80565b820191906000526020600020905b815481529060010190602001808311610b6357829003601f168201915b50505050509050600081511115610c0b576001600582604051610ba39190611bc2565b908152602001604051809103902060006101000a81548160ff02191690831515021790555080604051610bd69190611bc2565b60405180910390207ff8bd8d5a493ae87fd0e8f394606d75a71ad9e3a0690b0ad0eeadb36aa83e480060405160405180910390a25b81600160008673ffffffffffffffffffffffffffffffffffffffff1673ffffffffffffffffffffffffffffffffffffffff16815260200190815260200160002084604051610c599190611bc2565b90815260200160405180910390209081610c739190611e1a565b506000600260008673ffffffffffffffffffffffffffffffffffffffff1673ffffffffffffffffffffffffffffffffffffffff16815260200190815260200160002090506000805b8280549050811015610d1c578580519060200120838281548110610ce257610ce1611b57565b5b90600052602060002001604051610cf99190611f8f565b604051809103902003610d0f5760019150610d1c565b8080600101915050610cbb565b5080610d9557600260008773ffffffffffffffffffffffffffffffffffffffff1673ffffffffffffffffffffffffffffffffffffffff16815260200190815260200160002085908060018154018082558091505060019003906000526020600020016000909190919091509081610d939190611e1a565b505b6000600585604051610da79190611bc2565b908152602001604051809103902060006101000a81548160ff02191690831515021790555084604051610dda9190611bc2565b60405180910390208673ffffffffffffffffffffffffffffffffffffffff167febc6678020d92afbdc1acabaad47b8d37336dd959dee01ae705034b4c63269d286604051610e2891906115df565b60405180910390a3505050505050565b600160205281600052604060002081805160208101820180518482526020830160208501208183528095505050505050600091509150508054610e7a90611ac3565b80601f0160208091040260200160405190810160405280929190818152602001828054610ea690611ac3565b8015610ef35780601f10610ec857610100808354040283529160200191610ef3565b820191906000526020600020905b815481529060010190602001808311610ed657829003601f168201915b505050505081565b600080600260008473ffffffffffffffffffffffffffffffffffffffff1673ffffffffffffffffffffffffffffffffffffffff168152602001908152602001600020805480602002602001604051908101604052809291908181526020016000905b82821015611009578382906000526020600020018054610f7c90611ac3565b80601f0160208091040260200160405190810160405280929190818152602001828054610fa890611ac3565b8015610ff55780601f10610fca57610100808354040283529160200191610ff5565b820191906000526020600020905b815481529060010190602001808311610fd857829003601f168201915b505050505081526020019060010190610f5d565b50505050905060005b8151811015611176576000600160008673ffffffffffffffffffffffffffffffffffffffff1673ffffffffffffffffffffffffffffffffffffffff16815260200190815260200160002083838151811061106f5761106e611b57565b5b60200260200101516040516110849190611bc2565b9081526020016040518091039020805461109d90611ac3565b80601f01602080910402602001604051908101604052809291908181526020018280546110c990611ac3565b80156111165780601f106110eb57610100808354040283529160200191611116565b820191906000526020600020905b8154815290600101906020018083116110f957829003601f168201915b505050505090506000815111801561115757506005816040516111399190611bc2565b908152602001604051809103902060009054906101000a900460ff16155b15611168576001935050505061117d565b508080600101915050611012565b5060009150505b919050565b6000600360003373ffffffffffffffffffffffffffffffffffffffff1673ffffffffffffffffffffffffffffffffffffffff168152602001908152602001600020826040516111d19190611bc2565b908152602001604051809103902060006101000a81548160ff021916908315150217905550806040516112049190611bc2565b60405180910390203373ffffffffffffffffffffffffffffffffffffffff167f10d72b24a84bb45f13e889e2326a06b84320192b77535ae1ead86abdf20f61b94260405161125291906118c0565b60405180910390a350565b6060600260008373ffffffffffffffffffffffffffffffffffffffff1673ffffffffffffffffffffffffffffffffffffffff168152602001908152602001600020805480602002602001604051908101604052809291908181526020016000905b8282101561136a5783829060005260206000200180546112dd90611ac3565b80601f016020809104026020016040519081016040528092919081815260200182805461130990611ac3565b80156113565780601f1061132b57610100808354040283529160200191611356565b820191906000526020600020905b81548152906001019060200180831161133957829003601f168201915b5050505050815260200190600101906112be565b505050509050919050565b6001600360003373ffffffffffffffffffffffffffffffffffffffff1673ffffffffffffffffffffffffffffffffffffffff168152602001908152602001600020826040516113c49190611bc2565b908152602001604051809103902060006101000a81548160ff02191690831515021790555042600460003373ffffffffffffffffffffffffffffffffffffffff1673ffffffffffffffffffffffffffffffffffffffff168152602001908152602001600020826040516114379190611bc2565b908152602001604051809103902081905550806040516114579190611bc2565b60405180910390203373ffffffffffffffffffffffffffffffffffffffff167f99c205128626262ad21de1df32a34906d67a738531605cb4fcb104cebd5fb137426040516114a591906118c0565b60405180910390a350565b6000604051905090565b600080fd5b600080fd5b600073ffffffffffffffffffffffffffffffffffffffff82169050919050565b60006114ef826114c4565b9050919050565b6114ff816114e4565b811461150a57600080fd5b50565b60008135905061151c816114f6565b92915050565b600060208284031215611538576115376114ba565b5b60006115468482850161150d565b91505092915050565b600081519050919050565b600082825260208201905092915050565b60005b8381101561158957808201518184015260208101905061156e565b60008484015250505050565b6000601f19601f8301169050919050565b60006115b18261154f565b6115bb818561155a565b93506115cb81856020860161156b565b6115d481611595565b840191505092915050565b600060208201905081810360008301526115f981846115a6565b905092915050565b600080fd5b600080fd5b7f4e487b7100000000000000000000000000000000000000000000000000000000600052604160045260246000fd5b61164382611595565b810181811067ffffffffffffffff821117156116625761166161160b565b5b80604052505050565b60006116756114b0565b9050611681828261163a565b919050565b600067ffffffffffffffff8211156116a1576116a061160b565b5b6116aa82611595565b9050602081019050919050565b82818337600083830152505050565b60006116d96116d484611686565b61166b565b9050828152602081018484840111156116f5576116f4611606565b5b6117008482856116b7565b509392505050565b600082601f83011261171d5761171c611601565b5b813561172d8482602086016116c6565b91505092915050565b6000806040838503121561174d5761174c6114ba565b5b600061175b8582860161150d565b925050602083013567ffffffffffffffff81111561177c5761177b6114bf565b5b61178885828601611708565b9150509250929050565b60008115159050919050565b6117a781611792565b82525050565b60006020820190506117c2600083018461179e565b92915050565b6000602082840312156117de576117dd6114ba565b5b600082013567ffffffffffffffff8111156117fc576117fb6114bf565b5b61180884828501611708565b91505092915050565b6000819050919050565b61182481611811565b811461182f57600080fd5b50565b6000813590506118418161181b565b92915050565b6000806040838503121561185e5761185d6114ba565b5b600061186c8582860161150d565b925050602061187d85828601611832565b9150509250929050565b611890816114e4565b82525050565b60006020820190506118ab6000830184611887565b92915050565b6118ba81611811565b82525050565b60006020820190506118d560008301846118b1565b92915050565b6000806000606084860312156118f4576118f36114ba565b5b60006119028682870161150d565b935050602084013567ffffffffffffffff811115611923576119226114bf565b5b61192f86828701611708565b925050604084013567ffffffffffffffff8111156119505761194f6114bf565b5b61195c86828701611708565b9150509250925092565b600081519050919050565b600082825260208201905092915050565b6000819050602082019050919050565b600082825260208201905092915050565b60006119ae8261154f565b6119b88185611992565b93506119c881856020860161156b565b6119d181611595565b840191505092915050565b60006119e883836119a3565b905092915050565b6000602082019050919050565b6000611a0882611966565b611a128185611971565b935083602082028501611a2485611982565b8060005b85811015611a605784840389528151611a4185826119dc565b9450611a4c836119f0565b925060208a01995050600181019050611a28565b50829750879550505050505092915050565b60006020820190508181036000830152611a8c81846119fd565b905092915050565b7f4e487b7100000000000000000000000000000000000000000000000000000000600052602260045260246000fd5b60006002820490506001821680611adb57607f821691505b602082108103611aee57611aed611a94565b5b50919050565b7f4e487b7100000000000000000000000000000000000000000000000000000000600052601160045260246000fd5b6000611b2e82611811565b9150611b3983611811565b9250828203905081811115611b5157611b50611af4565b5b92915050565b7f4e487b7100000000000000000000000000000000000000000000000000000000600052603260045260246000fd5b600081905092915050565b6000611b9c8261154f565b611ba68185611b86565b9350611bb681856020860161156b565b80840191505092915050565b6000611bce8284611b91565b915081905092915050565b6000611be482611811565b915060008203611bf757611bf6611af4565b5b600182039050919050565b7f4f6e6c79206f776e65722063616e2063616c6c20746869730000000000000000600082015250565b6000611c3860188361155a565b9150611c4382611c02565b602082019050919050565b60006020820190508181036000830152611c6781611c2b565b9050919050565b60008190508160005260206000209050919050565b60006020601f8301049050919050565b600082821b905092915050565b600060088302611cd07fffffffffffffffffffffffffffffffffffffffffffffffffffffffffffffffff82611c93565b611cda8683611c93565b95508019841693508086168417925050509392505050565b6000819050919050565b6000611d17611d12611d0d84611811565b611cf2565b611811565b9050919050565b6000819050919050565b611d3183611cfc565b611d45611d3d82611d1e565b848454611ca0565b825550505050565b600090565b611d5a611d4d565b611d65818484611d28565b505050565b5b81811015611d8957611d7e600082611d52565b600181019050611d6b565b5050565b601f821115611dce57611d9f81611c6e565b611da884611c83565b81016020851015611db7578190505b611dcb611dc385611c83565b830182611d6a565b50505b505050565b600082821c905092915050565b6000611df160001984600802611dd3565b1980831691505092915050565b6000611e0a8383611de0565b9150826002028217905092915050565b611e238261154f565b67ffffffffffffffff811115611e3c57611e3b61160b565b5b611e468254611ac3565b611e51828285611d8d565b600060209050601f831160018114611e845760008415611e72578287015190505b611e7c8582611dfe565b865550611ee4565b601f198416611e9286611c6e565b60005b82811015611eba57848901518255600182019150602085019450602081019050611e95565b86831015611ed75784890151611ed3601f891682611de0565b8355505b6001600288020188555050505b505050505050565b600081905092915050565b60008190508160005260206000209050919050565b60008154611f1981611ac3565b611f238186611eec565b94506001821660008114611f3e5760018114611f5357611f86565b60ff1983168652811515820286019350611f86565b611f5c85611ef7565b60005b83811015611f7e57815481890152600182019150602081019050611f5f565b838801955050505b50505092915050565b6000611f9b8284611f0c565b91508190509291505056fea26469706673582212200a666f2f78be45f6f8052382d77f91452f99adb915145266d1a09a8af819d44c64736f6c634300081c0033",
  "linkReferences": {},
  "deployedLinkReferences": {}
}